S01800004763634170706C69636174696F6E32322E7372656327
S11300000C942A000C9434000C9434000C943400A6
S11300100C9434000C9434000C9434000C9434008C
S11300200C9434000C9434000C9434000C9434007C
S11300300C9434000C9434000C9434000C9434006C
S11300400C9434000C9434000C9434000C9434005C
S11300500C94340011241FBECFE5D8E0DEBFCDBF21
S11300600E944F000C9468000C9400002FEF28BBF2
S11300700197F1F7089518BA82E390E00197F1F738
S113008082E390E00E943600089518BA88EC90E06C
S11300900197F1F782E390E00E94360008958FEF14
S11300A087BB0E943B000E943B000E943B000E94D1
S11300B045000E9445000E9445000E943B000E94AA
S11300C03B000E943B0088EE93E00E943600E9CF9B
S10700D0F894FFCFCE
S9030000FC
